:020000040800F2
:1000000028300020B5010008BD010008BF0100082C
:10001000C1010008C3010008C5010008000000007C
:100020000000000000000000000000003105000892
:10003000C901000800000000D104000855050008AF
:10004000CF010008CF010008CF010008CF01000850
:10005000CF010008CF010008CF010008CF01000840
:10006000CF010008CF010008CF010008CF01000830
:10007000CF010008CF010008CF010008CF01000820
:10008000CF010008CF010008CF010008CF01000810
:10009000CF010008CF010008CF010008CF01000800
:1000A000CF010008CF010008CF010008CF010008F0
:1000B000CF010008CF010008CF010008CF010008E0
:1000C000CF010008CF010008CF010008CF010008D0
:1000D000CF010008CF010008CF010008CF010008C0
:1000E000CF010008CF010008CF01000800F002F89E
:1000F00000F050F814A696E8000CB244B344DA4578
:1001000001D100F047F8BAE80F000FA696E83000DA
:10011000A5EB040504EB0607AAEB0704A7F101070A
:100120004FEA15154FEA3414A4F10104AC4201D38F
:1001300000F030F813F0010F18BFFB1A43F0010371
:1001400000F001F8DBE71847C41B0000E41B0000C7
:10015000103A24BF78C878C1FAD8520724BF30C8F3
:1001600030C144BF04680C60704700007047000055
:100170000023002400250026103A28BF78C1FBD8B0
:10018000520728BF30C148BF0B6070471FB51FBD65
:1001900010B510BD00F0F1F81146FFF7F7FF00F0C1
:1001A00077FA00F00FF903B4FFF7F2FF03BC00F099
:1001B00017F900000948804709480047FEE7FEE7B5
:1001C000FEE7FEE7FEE7FEE7FEE7FEE7FEE7FEE707
:1001D00004480549054A064B70470000850500089C
:1001E000ED000008282A002028300020282C0020BC
:1001F000282C0020032A40F2308010F0030C00F07D
:10020000158011F8013BBCF1020F624498BF11F850
:1002100001CB00F8013B38BF11F8013BA2F1040209
:1002200098BF00F801CB38BF00F8013B11F0030381
:1002300000F04A80083AC0F0088051F8043B083AC0
:1002400051F804CBA0E80810F5E7121D5CBF51F887
:10025000043B40F8043BAFF30080D20724BF11F801
:10026000013B11F801CB48BF11F8012B24BF00F866
:10027000013B00F801CB48BF00F8012B70474FF05D
:1002800000020429C0F0128010F0030C00F050802E
:10029000CCF1040CBCF1020F18BF00F8012BA8BF71
:1002A00020F8022BA1EB0C0100F042B85FEAC17C00
:1002B00024BF00F8012B00F8012B48BF00F8012BE8
:1002C000704770477047704710B5203AC0F00B80F8
:1002D000B1E81850A0E81850B1E81850A0E818503C
:1002E000203ABFF4F5AF5FEA027C24BFB1E81850B2
:1002F000A0E8185044BF18C918C0BDE810405FEA14
:10030000827C24BF51F8043B40F8043B08BF70478F
:10031000D20728BF31F8023B48BF11F8012B28BF94
:1003200020F8023B48BF00F8012B70474FF0000255
:1003300000B5134694469646203922BFA0E80C50DB
:10034000A0E80C50B1F12001BFF4F7AF090728BFB6
:10035000A0E80C5048BF0CC05DF804EB890028BF32
:1003600040F8042B08BF704748BF20F8022B11F05B
:10037000804F18BF00F8012B7047754600F02CF82D
:10038000AE4605006946534620F00700854618B082
:1003900020B5FFF71DFFBDE820404FF000064FF0ED
:1003A00000074FF000084FF0000BAC46ACE8C00966
:1003B000ACE8C009ACE8C009ACE8C00921F007010D
:1003C0008D46704710B50446AFF300802046BDE867
:1003D0001040FFF7E8BE00000048704728000020EA
:1003E00001491820ABBEFEE726000200704700005E
:1003F000CA7802F00F0CD30644BF8B784CEA030C8A
:100400002DE9F04709880B0624D086465EF8143B98
:1004100000F1100800254FF0010A4FF00F090024E9
:1004200006E000BF37600134082C05F1040510D048
:100430000AFA04F70F42F6D009FA05F6B3430CFAAC
:1004400005F63343282A7646ECD0482AEBD14646B7
:10045000E8E70360B1F5807F38BFBDE8F087436807
:1004600000F1100E00F1140A00254FF480794FF0CE
:100470000F08002706E000BF26600137082F05F1AE
:10048000040510D009FA07F60E42F6D008FA05F472
:10049000A3430CFA05F42343282A5446ECD0482AF7
:1004A000EBD17446E8E74360BDE8F087C0680840D8
:1004B00018BF012070470000416170471023002AD7
:1004C00008BF1423C1507047000000000000000066
:1004D000EFF30980BFF36F8F0D4B1A6820E9F00F1F
:1004E00010602DE908404FF0500080F3118800F0B3
:1004F00041FE4FF0000080F31188BDE80840196804
:100500000868B0E8F00F80F30988BFF36F8F704779
:100510008C000020002941F21801C4F202010A688F
:100520000CBF22EA00001043086070470000000082
:10053000074B19680868B0E8F00F80F30988BFF32B
:100540006F8F4FF0000080F311884EF00D0E704752
:100550008C00002080B54FF0500080F31188BFF36D
:100560006F8FBFF34F8F01F093F830B14EF6045008
:10057000CEF200004FF080510160002080F311881E
:1005800080BD000082B041F20400C4F2020050F8C5
:10059000041C002241F0010140F8041C0168CFF660
:1005A000FF021140016050F8041C4FF6FF72CFF6B5
:1005B000F662114040F8041C50F8041C21F480211C
:1005C00040F8041C016821F4FE0101604FF41F0192
:1005D000416000210191009150F8041C41F48031E8
:1005E00040F8041C50F8041C01F4003100910199FA
:1005F00001310191009919B90199B1F5A06FF1D1BB
:1006000050F8041CC1F3404100910099012936D1F2
:1006100042F20001C4F202010A6842F010020A60CC
:100620000A6822F003020A600A6842F002020A60C5
:100630000168016001680160016841F48061016046
:10064000016821F47C110160016841F4E811016046
:1006500050F8041C41F0807140F8041C50F8041C50
:100660008901FBD5016821F003010160016841F0B7
:1006700002010160016801F00C010829FAD14EF66F
:100680000850CEF200004FF00061016002B07047E8
:1006900084B0042001210125FFF73CFF1E2040F615
:1006A0000004C1F20300C4F20104039003A9204630
:1006B000FFF79EFE20461021FFF7FEFE41F2E514F3
:1006C000C0F6000440F20003002611A1C2F20003AC
:1006D00020468022CDE9005600F0E2FE40F20C03F5
:1006E0000EA1C2F2000320468022CDE9005600F0A0
:1006F000D7FE40F218030BA1C2F20003204680226D
:10070000CDE9005600F0CCFE00F0E8FCFEE700BFAB
:100710004C45445F302E31487A0000004C45445F20
:1007200031487A004C45445F3130487A000000007F
:100730002DE9F04381B00E4642F61421C2F20001C9
:100740000D6840F29401C2F20001D1F8008040F23D
:100750009C0140F28C04C2F20001C2F20004D1F804
:10076000009021680746081D00F004FB10B1781CBA
:100770000FD028E0206842F61812C06AC2F20002C8
:100780000121136801FA00F023EA00001060781CD0
:1007900019D1C6B142F6EC10C2F20000D0E9001245
:1007A000236801319A6093682768FB602368976823
:1007B00004337B60236804339360226801605061D6
:1007C00001B0BDE8F0832068ED194560206800F1B4
:1007D000040105D3484601B0BDE8F04300F0ECBA8F
:1007E000404600F0E9FA42F67810C2F200000168D3
:1007F0008D4238BF056001B0BDE8F08370B500F0F0
:10080000F9FA42F61826C2F20006306818B1BDE8BF
:10081000704000F0FFBA42F61C14C2F200042046F9
:1008200000F0BAFA42F63015C2F20005284600F090
:10083000B3FA40F29000C2F20000046040F2A0005F
:10084000C2F2000005600A200C21002200F012FD17
:1008500000283060DBD003A100F04CFBBDE8704005
:1008600000F0D8BA546D72510000000042F60C1529
:1008700040F2A40A4EF6045842F6002742F6081643
:10088000C2F20005C2F2000ACEF200084FF0805911
:10089000C2F20007C2F2000615E000BF00F0AAFA9B
:1008A000F868C468201D00F065FA306801383060CF
:1008B00028680138286000F0ADFA206B00F0B8FA23
:1008C000204600F0B5FA28680028E7D1DAF80000E1
:1008D0000228F8D3C8F80090BFF34F8FBFF36F8F93
:1008E000F1E7000006480068006880F3088862B6F7
:1008F00061B6BFF34F8FBFF36F8F00DF00BF000003
:1009000008ED00E02DE9F04381B040F29008C2F21A
:100910000008D8F800200546D2680E46D46804F1D5
:100920000409484600F026FA94F8240041070CD444
:1009300000F0FA0084F824001CE000BF711B814223
:1009400010D3216A204688473D46A0692461471993
:10095000B7426760F2D9AE4201D2AF42F1D2D8F8C5
:10096000000004E040F2A000C2F200000068494626
:1009700000F022FA216A204601B0BDE8F0430847A2
:1009800081B0002000904FF0500080F31188BFF339
:100990006F8FBFF34F8F00BF00980028FCD001B0CD
:1009A0007047000084B040F2900440F2880940F2A1
:1009B000A00A42F6182BC2F20004C2F20009C2F2E9
:1009C000000AC2F2000B0DF1040800BF206807689E
:1009D00017B1C068066800E0002600F0C3FB00F015
:1009E00051FED9F800100546884209D220680168F6
:1009F00091B1C0684FF0FF310068FFF783FFF5E762
:100A0000C9F8005097B1AE4210D800F075FF3046DB
:100A10002946FFF777FF25E0DAF80010CAF8000052
:100A20002160C9F8005000F067FF1BE00FB1002201
:100A300005E0DAF800000068B0FA80F04209DBF85F
:100A40000000711B00F07AFA00F056FF50B94EF624
:100A50000450CEF200004FF080510160BFF34F8F81
:100A6000BFF36F8F0021DBF80000CDE90211019187
:100A700004E0206800F0A0F9DBF800004146002205
:100A800000F038FC0028A1D001980028F4D4039D80
:100A9000686910B1281D00F06DF900F0F3FDD9F878
:100AA0000010064688420ED22068016831B1C06845
:100AB0004FF0FF310068FFF725FFF5E7DAF8001087
:100AC000CAF8000021600198C9F8006001380828C0
:100AD000D2D8DFE800F00505392360050539230089
:100AE00095F82400029BAA6940F0010185F82410C2
:100AF000D718294641F8047FB7422D6104D99E4298
:100B0000B7D29F4203D2B4E7F31A934219D34307F3
:100B100021D400F0FA0085F8240050E095F8240074
:100B20002D6140F00101029885F8241082192946B0
:100B300041F8042FB242A8613FF69BAF00283FF472
:100B40009BAFDAF8000095E795F8240000F0FE006E
:100B500085F8240090E70298C146D846D3460F4650
:100B6000104406E0301A88421DD3296A2846884777
:100B70005046A9692D6101EB000AB245C5F804A0F1
:100B8000F0D9864201D28245EFD22068394600F082
:100B900013F9DA460DE095F824008107D6D42846EB
:100BA00000F046F968E7DBF800003946DA4600F065
:100BB00003F9C346C84640F28809C2F20009296A0F
:100BC0002846884758E70000F0B581B0044600F099
:100BD00011F994F94560012E0FDB04F1240500BFE3
:100BE000286850B1284600F01FFE002818BF00F00A
:100BF00033FA70B2013E0128F2DCFF2684F845602A
:100C000000F008F900F0F6F894F94470012F0EDBBB
:100C100004F11005286850B1284600F005FE0028B0
:100C200018BF00F019FA78B2013F0128F2DC84F80D
:100C3000446001B0BDE8F04000F0ECB8B0B500F1A0
:100C40000805092D01D200250AE010F0070107D0A0
:100C500009398D429ABF20F0070000F110050025E8
:100C600000F080FA40F29801C2F20001086842F6F2
:100C70006C1CC2F2000C18BB40F20810C2F200005B
:100C8000C21D430700F5205318BF22F0070042F6AB
:100C9000E412C2F200020024C2E9000423F00702B9
:100CA000A2F108030B6042E902441A1A0B68CCF85F
:100CB0000020C0E9003242F67410C2F20000026067
:100CC000012D4FF0000440DBDCF8000085423CD8E9
:100CD00042F6E410C2F2000003685C68AC4206D23F
:100CE0001A6822B1546818461346AC42F8D3096812
:100CF0008B4229D0D0F800E01A68641B112C0260E6
:100D000004D359194C605D605A51016042F6741069
:100D10005968DCF80020C2F200000468521AA242AE
:100D2000CCF8002038BF026042F680125868C2F248
:100D30000002156840F0004000210EF10804C3E9EC
:100D40000010681C106000E0002400F0D5FD204673
:100D5000B0BD0000034640F68110C0F600004FF021
:100D6000807C21F0010103E90310A3F1400043F866
:100D7000202C7047D0E9013201699A60D1F804C093
:100D800082688445536008BF4A600B680022026194
:100D9000581E0860704700004FF0FF31024642F8CD
:100DA000081F0021C0E90322C0E9001270470000BB
:100DB000002101617047000080B5D1F800C01CF12E
:100DC000010207D000F108039E465B681A6862457D
:100DD000FAD901E0D0F810E0DEF8042008614A609A
:100DE00091600268C1F808E0CEF80410511C01605F
:100DF00080BD00004FF0500080F31188BFF36F8F6B
:100E0000BFF34F8F40F22400C2F2000001680131AD
:100E10000160704740F22400C2F20000016801390D
:100E2000016018BF7047002080F3118870470000F0
:100E3000B0B520B150F8041CB1F1FF3F00DDB0BDEA
:100E4000A0F108042268002A18BFB0BD21F00041BB
:100E500040F8041C054600F085F942F66C11C2F218
:100E6000000155F8040C0B682A461844086042F645
:100E7000E411C2F2000100BF08460968A142FBD399
:100E80004368C518A54204D152F8042C04461A44FC
:100E900042606368E2188A4201D00A460AE040F2E2
:100EA0009802C2F200021268914203D0D1E90021F7
:100EB00019446160A042226018BF046042F68410A9
:100EC000C2F20000016801310160BDE8B04000F0ED
:100ED00013BD00004EF21000CEF2000000210160B0
:100EE000816041F63F11C0F20101416007210160BC
:100EF00070470000B0B54FF0000CB9B142F6A01E2B
:100F0000C2F2000E0023002203E000BF0833402B92
:100F10000FD00EEB03046568A84209D0002AF5D172
:100F20002268002A18BF64462246EFE7002200E04C
:100F30002246002A18BFC2E90010B0BD70B51546A0
:100F40000E460446FFF756FF94F84400FF2804BFFE
:100F5000002084F8440094F84500FF2804BF0020D6
:100F600084F84500FFF756FFA06B28B904F1240070
:100F700031462A4600F088F82046BDE87040FFF769
:100F800023BE00002DE9F041002849D0044642F676
:100F90001010C2F20000016840F28C0501310160BE
:100FA00042F61420C2F20000076840F29400C2F238
:100FB0000000D0F8008040F29C00C2F20000C2F2B3
:100FC0000005066828680430FFF7D4FE60B9286879
:100FD00042F61812C06AC2F200020121136801FA37
:100FE00000F023EA000010602868E41944602868D3
:100FF00000F1040103D33046FFF7DEFE0AE040466D
:10100000FFF7DAFE42F67810C2F2000001688C4267
:1010100038BF046000F070FC002818BFBDE8F08104
:101020004EF60450CEF200004FF080510160BFF345
:101030004F8FBFF36F8FBDE8F081000042F67C1147
:10104000C2F200010968016042F61421C2F20001F7
:10105000096841607047000042F62020C2F200009B
:10106000012101607047000010B50C4640F28C0170
:10107000C2F2000109681831FFF79EFE20460121E7
:10108000BDE81040FFF754BBB0B540F28C0EC2F281
:10109000000E0346D0E900C0DEF80040002AE061FF
:1010A0008468DEF800502C62DEF80040856804F1A8
:1010B00018046C60DEF8004004F118048460DEF867
:1010C00000500846AB620CF1010518BF4FF0FF302D
:1010D00011461D60BDE8B040FFF72ABB80B586B061
:1010E00044F24940C4F24C50029042F6701E40F661
:1010F0006D004FF0000CC2F2000EC0F6000002A915
:10110000802200238DF80CC0CDE900CE00F0C8F994
:10111000012820D100F0A6FC01281CD14FF050007E
:1011200080F31188BFF36F8FBFF34F8F42F67810B3
:10113000C2F200004FF0FF31016042F6E010C2F24F
:1011400000000121016042F61420C2F200000021DB
:10115000016000F063F841F60850C0F60000006836
:1011600006B080BD42F61010C2F2000001680131E5
:101170000160704742F61010C2F20000006830B102
:1011800042F62020C2F2000001210160704742F6C1
:101190002020C2F200000021016042F61810C2F2C5
:1011A00000000068B0FA80F0C0B2C0F11F0040F249
:1011B000A40100EB8000C2F2000101EB8000416855
:1011C00000F1080249689142416001D1C168416063
:1011D000406840F28C01C068C2F2000108600868F3
:1011E00070470000044681680020C4F2FA3000F025
:1011F0005FFC00F01FFD05462668A788304639468B
:10120000FFF754F9C0F10100C2B230463946FFF78A
:1012100055F92846FFF7B6FEEEE7000010B582B09C
:101220004EF62050CEF200000168002441F47F0108
:101230000160016841F07F41016040F8044CFFF714
:1012400049FE40F22400C2F200000460FFF74AFBAE
:10125000FFF790FF01944FF0500080F31188BFF327
:101260006F8FBFF34F8F00BF01980028FCD0002084
:1012700002B010BDE0B3A0FB0123CBBB01FB00F229
:1012800012F1490F34D8B0B5044602F148000D46BA
:10129000FFF7D4FC014600284FF0000008BFB0BDA6
:1012A0000846002D18BF48300860C1E90F450C46BC
:1012B0000025FFF79FFD2068D4E90F12A56302FB0C
:1012C0000103013901FB0201C4E90103FF20E160D0
:1012D00084F8440084F8450004F11000FFF75CFD39
:1012E00004F12400FFF758FDFFF794FD2046B0BD40
:1012F000002070472DE9F04F85B0054600F1100A37
:10130000243002AF0DF110094FF000080191049252
:1013100000900CE02846FFF757FC00F0EDFAFFF7CD
:1013200069FDAC6BFFF776FD002C00F08480FFF7C1
:1013300061FDD5F838B0BBF1000F27D02A6C5AB147
:10134000D5E902011144E960814224BF2868E860C0
:10135000E9680198FEF74EFFABF10100A863286928
:1013600070B1504600F060FA50B14EF60450CEF223
:1013700000004FF080510160BFF34F8FBFF36F8FBC
:10138000FFF748FD00200126A0B955E0049850B1B0
:10139000B8F1000F02D13846FFF750FE4FF00108B8
:1013A000012038B948E0FFF735FD0026002000286D
:1013B00042D000BFFFF72EFDFFF7D4FEFFF71AFD66
:1013C00095F84400FF2804BF002085F8440095F8F4
:1013D0004500FF2804BF002085F84500FFF71AFDEF
:1013E0003846494600F02CF800287FF493AFFFF709
:1013F00001FDAC6BFFF70EFD2CB12846FFF7E4FBB7
:1014000000F07AFA93E704990098FFF72DFE28463A
:10141000FFF7DAFB00F070FA00287FF488AF4EF691
:101420000450CEF200004FF080510160BFF34F8FA7
:10143000BFF36F8F7BE70026304605B0BDE8F08F25
:1014400070B50C460546FFF7D5FC42F6142EC2F2E5
:10145000000EDEF8003021684A1C1CD042F67C1CCD
:10146000C2F2000CD5E90002DCF80060864201D02F
:1014700093420CD29A1A914209D9881A2060DCF85A
:10148000000000242860DEF80000686004E000200E
:101490002060012400E00024FFF7BCFC204670BD62
:1014A0002DE9F04F81B081469000984616460D46D2
:1014B000FFF7C4FB70B107465420FFF7BFFB30B104
:1014C00054210446FEF7DBFE276334B960E038465A
:1014D000FFF7AEFC0024002C5AD0206BDDF82CA0C6
:1014E00000EB86000A9F043820F007066DB104F176
:1014F000340000216A5C42546A5C1AB10F2901F180
:101500000101F7D1002084F84300251D2846042F4F
:1015100028BF0427E7626764FFF74AFC04F118005C
:10152000FFF746FCC7F10500A06130464946424638
:1015300024616462FFF70EFCBAF1000F206018BF4F
:10154000CAF8004024B3FFF755FC42F60810C2F277
:101550000000016840F28C0B01310160C2F2000B07
:10156000DBF8001042F6E01A40F2A407C2F2000ACB
:10157000C2F2000789B1DAF80000002846D1DBF892
:101580000000E16AC06A884298BFCBF800403DE0A5
:101590004FF0FF3001B0BDE8F08FCBF8004000689D
:1015A000012833D1002600BFB819FFF7F5FB143628
:1015B000642EF9D142F64418C2F200084046FFF703
:1015C000EBFB42F65819C2F200094846FFF7E4FB6C
:1015D00042F68C10C2F20000FFF7DEFB42F600205C
:1015E000C2F20000FFF7D8FB42F6EC10C2F2000096
:1015F000FFF7D2FB40F29400C2F20000C0F8008076
:1016000040F29C00C2F20000C0F8009042F61410B4
:10161000C2F20000016842F6181201310160E06A6E
:10162000C2F20002012113688140194300EB8000DF
:10163000116007EB80014A6861619368A260E36012
:101640009368956057F820205D60511C47F8201082
:10165000FFF7E0FBDAF8000080B1DBF80000E16A98
:10166000C06A88420AD24EF60450CEF200004FF013
:1016700080510160BFF34F8FBFF36F8F012001B026
:10168000BDE8F08F42F61420C2F2000000687047F7
:1016900042F61010C2F20000006840B142F6881015
:1016A000C2F20000016801310160002070472DE99D
:1016B000F04F42F61420C2F20000016842F67812A0
:1016C00011F1010EC2F20002C0F800E01CD340F29A
:1016D000940040F29C03C2F20000C2F200030168D1
:1016E0001F680760196042F67C11C2F200010B68A6
:1016F00001330B600168096819B10068C0680068AF
:1017000001E04FF0FF301060106840F2A4088645F9
:10171000C2F2000801D200206EE040F2940AC2F248
:10172000000ADAF800004FF000090068002858D0DD
:1017300042F6181BC2F2000B002025E0F96ADBF824
:10174000002001238B401A43CBF8002001EB8102DB
:1017500008EB82035E687B61B468BE60FC60B468BD
:10176000B56058F822606560731C48F8223040F27A
:101770008C02C2F200021268D26ADAF8003091429A
:1017800088BF0120196881B3DAF80010C968CF68F2
:101790003D4655F8041F8E4529D3D7E9026479697F
:1017A000B460D1F804C0FC68AC45666008BF4C600A
:1017B0000E68BC6A013E002CC7F814900E60BDD0C4
:1017C000D7E907616368B160396A07F1180293428B
:1017D0004E6008BF61602168C7F828900139216018
:1017E000ACE74FF0FF31002005E04FF0FF3142F64B
:1017F0007812C2F20002116040F28C01C2F20001C4
:101800000968C96A01EB810158F82110012942F6E3
:101810002021C2F2000188BF01200968002918BFF9
:101820000120BDE8F08F000010B5C068C068D0E9A5
:101830000713826A8B60D2F804E0036A00F1180C87
:10184000E645596008BF5360136800218162591E44
:10185000116042F61011C2F20001096849B142F666
:101860008C12C2F20002516882628B68C16103620D
:1018700028E0D0E9021342698B60D2F804E0C36823
:1018800000F1040CE645596008BF5360116842F648
:10189000181401391160C16AC2F200044FF0010E40
:1018A00022680EFA01F31A43226040F2A40201EB0F
:1018B0008101C2F2000202EB8102516842618B6831
:1018C0008160C3608B68C1F808C0C3F804C01168A8
:1018D000C06A0131116040F28C01C2F20001096856
:1018E000C96A884291BF002042F62021C2F200015D
:1018F000012088BF086010BD2DE9F04F81B0FFF7CF
:1019000079FA42F61010C2F2000001680139016054
:10191000006830B10024FFF77DFA204601B0BDE831
:10192000F08F42F60810C2F2000000680028F1D0E3
:1019300042F68C1AC2F2000ADAF8001042F62029A8
:1019400040F28C080029C2F20009C2F2000864D0FB
:1019500042F6181B40F2A4044FF0000C4FF0010EA9
:10196000C2F2000BC2F20004DAF80C10CE68D6E91D
:101970000725B76A95607868356A06F118018842CC
:101980006A6008BF7D603868C6F828C001383860D2
:10199000D6E90201756981606A68F168371DBA424B
:1019A000486008BF6960286801382860F06ADBF881
:1019B00000100EFA00F21143CBF8001000EB80018A
:1019C00004EB810255687261AB68B560F360AB6887
:1019D000AF605F6054F821305A1C44F82120D8F8D9
:1019E0000010C96A884288BFC9F800E0DAF8000030
:1019F0000028B9D18EB140F29400C2F20000016813
:101A0000096819B10068C068006801E04FF0FF3054
:101A100042F67811C2F20001086042F68814C2F260
:101A20000004266856B10127FFF732FE002818BFD0
:101A3000C9F80070013EF7D100202060D9F80000FD
:101A400000283FF467AFD8F800004EF60450CEF2FD
:101A500000004FF080510160BFF34F8F0124BFF3AE
:101A60006F8F58E780B582B0FEF7C8FE42F61820A7
:101A7000C2F20000006898B142F61C2C40F6A51096
:101A8000C2F2000C4FF0020EC0F6000006A14FF4A7
:101A900080720023CDE900ECFFF702FD02B080BDAB
:101AA000002002B080BD00BF546D722053766300E9
:101AB0004FF47F0C1CEAD0121EBF1CEAD11392EA2D
:101AC0000C0F93EA0C0F00F0858090EA010F48BFDD
:101AD00042F4807240F4000C41F400002CF07F418D
:101AE00020F07F4000B5A2EB030281420FF2081CF8
:101AF000ACEB504E9EF800E0C0F100004FEA4E0EF5
:101B000000FB0EFC38BF49004FEA2C1C0CFB0EF307
:101B10004FEACE1E0EEB635E4FEA112C0EFB0CFC5F
:101B20004FEAC1214FEA1C5300FB031102F5FA02F0
:101B30004FEA112C0EFB0CFC4FEA01314FEADC4C52
:101B400000FB0C1142EB2242C14228BF09184CEBAA
:101B500003335DF804EB10EB410143EBC250B2F5E7
:101B60007C0F38BF704729D512F0F00F1CBF00F171
:101B7000C04000F0004070470081828384858687E2
:101B800088898B8C8D8E8F919293959697999A9C3C
:101B90009D9FA0A2A3A5A7A8AAACAEB0B2B3B5B7AB
:101BA000B9BCBEC0C2C5C7C9CCCED1D4D7D9DCDF81
:101BB000E2E6E9ECF0F3F7FAFE0000004FEA400C31
:101BC0000CF1807CBCF17E4F28BF7047B0F1C04063
:101BD00000F095B80CEAD11390EA010F48BF42F427
:101BE0008072624538BF634507D213F47F0F16D069
:101BF00080EA010000F00040704710B500F039F8AD
:101C0000097EFC3E00F005B880EA010000F00040CB
:101C1000704780EA010000F0004000F070B812F454
:101C20007F0F04BF0248704780EA010000F067B8E8
:101C30000000C07FC10DD1F19E0206DB4FEA0023F8
:101C400043F0004323FA02F07047004207D54FEA01
:101C50004001B1F1FE4F02D24FF00000704710B5C5
:101C600000F007F849922480002070476FEA2000B6
:101C700070470EF1020E2EF0030E5EF8044B244264
:101C800004D44FEA4102B2F17F4F11D84FEA40032A
:101C9000B3F17F4F0CD80ED14FEAD07C0CEB4C0C3B
:101CA0000CF1020CB2F17F4F08BF4CEBD17C04E089
:101CB0004FF0080C01E04FEAD17C0CEB4C0324FA06
:101CC00003F404F00704B4F1040C06D20EEB840C08
:101CD000BDE810404CF0010C6047DFE80CF007084D
:101CE00002024FF00040A0F5800010BD08464200FF
:101CF00018BFD2F1807288BF00F0004010BDFF21F4
:101D000041EAD050C0057047040000002C1D0008B7
:101D1000000000202800000050010008541D0008A9
:101D20002800002000300000700100080008014079
:101D300002000000CDCCCC3D0008014004000000B2
:101D40000000803F00080140080000000000204122
:041D5000AAAAAAAAE7
:04000005080001B539
:00000001FF
