:020000040800F2
:1000000000500020510900089509000895090008D2
:1000100095090008950900089509000800000000EE
:10002000000000000000000000000000950900082A
:1000300095090008000000009509000895090008CE
:100040009509000895090008950900089509000818
:100050009509000895090008950900089509000808
:1000600095090008950900089509000895090008F8
:1000700095090008950900089509000895090008E8
:1000800095090008950900089509000895090008D8
:1000900095090008950900089509000895090008C8
:1000A00095090008950900089509000895090008B8
:1000B00095090008950900089509000895090008A8
:1000C0009509000895090008950900089509000898
:1000D0009509000895090008950900089509000888
:1000E000950900089509000895090008000000001E
:1000F0000000000000000000000000000000000000
:0C01000000000000000000005FF808F1A3
:10010C002DE9F04F012191B0052000F09BFB4F4BE6
:10011C004F4805A9059300F0E3FA4E4B4C4805A94E
:10012C00059300F0DDFA4FF480620423484805A9DA
:10013C00ADF814208DF8173000F0D2FA01214FF4ED
:10014C00804000F07FFB00244FF440234FF4E13259
:10015C00414805A90793CDE90524ADF8204000F0EE
:10016C007DFB012280213C4800F0E2FB01213A4852
:10017C0000F0D0FB0121084600F058FB374800F096
:10018C00F1F94FF400531021802235480E9305905D
:10019C00344BDFF8D0A000F548400791403005A95A
:1001AC00CDE90A240693CDE908440C940D940F94E0
:1001BC0000F06CFA422352462B4902F8013B11F82D
:1001CC00013F002BF9D113709AF80020002A00F09F
:1001DC003A8101339BB21AF803201C46002AF8D14D
:1001EC00224E337803F0FF017BB901251B48357093
:1001FC0000F06AFA4FF470421D4B1A491748196502
:10020C009C6429465A6000F05FFA194C4FF0010BC0
:10021C002368DFF860809B04104F0D4D0BD4012137
:10022C00284600F0B7FABBF1010F814624D0CB462B
:10023C0023689B04F3D54FF40053002163603846C8
:10024C0000F042FA00233370E9E700BF01000348D5
:10025C00000801400002031800380140440002402D
:10026C000438014008000020980900080000002014
:10027C0000000240040000200028D8D18AF80000B9
:10028C00DFF8C8A144225146D8F800307048013339
:10029C00C8F8003001F8012B10F8012F002AF9D111
:1002AC000A709AF80020002A00F0BF80674A12F802
:1002BC00011F0029FBD12D2111809AF80020002A62
:1002CC0000F0BB80614A12F8011F0029FBD14E21BE
:1002DC00604802F8011B10F8011F0029F9D11170B8
:1002EC009AF8002059491AB111F8012F002AFBD1B4
:1002FC002D22594801F8012B10F8012F002AF9D1B1
:10030C000A70002B00F088809B46DFF850E105A8AE
:10031C00DC46AEFB0B31C90801EB8103ABEB4303AD
:10032C003033BCF1090F8B4602F1010200F8013B9E
:10033C00EED802AB05A9114403EB020C11F8010D28
:10034C0003F8010B9C45F9D1002102F140030DEBA0
:10035C0003029AF8003002F8381C9DF80820002B94
:10036C006FD03A4B13F8011F0029FBD132B102A90F
:10037C0003F8012B11F8012F002AF9D100221A7071
:10038C009AF80030314A1BB112F8013F002BFBD117
:10039C000D23334902F8013B11F8013F002BF9D131
:1003AC0013709AF80020002A49D001339BB21AF836
:1003BC0003209B46002AF8D1337803F0FF0183B960
:1003CC0001233846337000F07FF9204B4FF4704214
:1003DC0023650123C4F848B019463846626000F022
:1003EC0073F900220092009B1D2B3FF620AF019267
:1003FC00019BB3F5FA5F07D200BF019B0133019358
:10040C00019BB3F5FA5FF7D3009B01330093009B7C
:10041C001D2BECD9CB460BE730229AF80030ADF807
:10042C000820002B9DD1094BA1E72D21074A1180F3
:10043C009AF80020002A7FF445AF044A47E79B4610
:10044C00BAE7024B92E71C46CAE600BF0800002040
:10045C00B4090008C0090008C8090008CDCCCCCCF0
:10046C00D009000810B400204FF41F04394A3A4B4D
:10047C00116883B041F00101116051680B40536069
:10048C00136823F0847323F480331360136823F40C
:10049C0080231360536823F4FE0353609460009030
:1004AC000190136843F48033136003E0009BB3F5B1
:1004BC00A06F09D0136803F400330193009B013340
:1004CC000093019B002BF1D0224B1B6813F40033DB
:1004DC0018BF01230193019B012B06D04FF0006242
:1004EC001E4B9A6003B010BC70471D4A194B116823
:1004FC0041F010011160116821F0070111601168C1
:10050C0041F0020111605A685A605A685A605A6880
:10051C0042F480625A605A6822F47C125A605A681B
:10052C0042F4E8125A601A6842F080721A601A6833
:10053C009201FCD55968074A21F0030159605968AA
:10054C0041F002015960536803F00C03082BFAD1F7
:10055C00C4E700BF001002400000FFF800ED00E00F
:10056C00002002404FF6FE7C00230268394902EA63
:10057C000C0288420260036043608360C36027D032
:10058C00354B98421ED0354B98422DD0344B984267
:10059C0030D0344B984221D0334B984230D0334B2F
:1005AC00984239D0324B98423CD0324B98422DD0A5
:1005BC00314B98423CD0314B98423FD0304B984213
:1005CC0042D070472F4A536843F0F0035360704792
:1005DC002C4A536843F00F0353607047294A536801
:1005EC0043F4702353607047264A536843F4706396
:1005FC0053607047234A536843F470435360704709
:10060C00204A536843F47003536070471E4A536882
:10061C0043F0F003536070471A4A536843F0706319
:10062C0053607047184A536843F00F035360704788
:10063C00154A536843F4706353607047124A536809
:10064C0043F47043536070470F4A536843F470236C
:10065C005360B6E7080002401C0002403000024024
:10066C0044000240580002406C00024080000240EE
:10067C00080402401C0402403004024044040240BE
:10068C005804024000000240000402408B6830B461
:10069C000C6A0A6923431343CD69D1E9054223430C
:1006AC0013434C6A2B43026823438C6A6FF30E127C
:1006BC002343CC6813430360D1E900234460826078
:1006CC0030BCC360704700BF21B1036843F0010325
:1006DC00036070474FF6FE72036813400360704767
:1006EC00F0B591F803C01CF0100F18BF8B78098877
:1006FC000CF00F0518BF1D43CBB20BB300234FF00A
:10070C00010E0F27066802E00133082B17D00EFAF2
:10071C0003F232EA0104F7D1BCF1280F36D0BCF158
:10072C00480F00D102619A0007FA02F4013326EA5D
:10073C00040605FA02F2082B46EA0206E7D1066027
:10074C00FF2922D900234FF0010E466802E0013345
:10075C00082B19D003F108020EFA02F232EA010456
:10076C00F5D1BCF1280F13D0BCF1480F08BF0261C2
:10077C000F249A009440013326EA040605FA02F28B
:10078C00082B46EA0206E5D14660F0BD4261CAE795
:10079C004261EDE78368194214BF012000207047C5
:1007AC001D4A10B4536803F00C03082B20D01B4BCC
:1007BC00194A036051681A4CC1F30311615CCB40B8
:1007CC0043605168C1F30221615C23FA01F181603D
:1007DC005168C1F3C221645C1249E340C3605268A2
:1007EC0010BCC2F381328A5CB3FBF2F30361704735
:1007FC0053685168C3F38343C90303F1020306D55D
:10080C005268920303D4054A02FB03F3D0E7064A6D
:10081C0002FB03F3CCE700BF0010024000127A0089
:10082C00D8090008D409000800093D00044A53699E
:10083C0011B103435361704723EA000353617047BE
:10084C0000100240044A936911B10343936170474D
:10085C0023EA0003936170470010024030B5044650
:10086C00238ACA889BB223F4405313432382A3895F
:10087C008A8823F4B05323F00C031B041B0C134382
:10088C000A8987B013434A8901A813439BB2A381F9
:10089C00A38A8A899BB223F440731343A3820D4627
:1008AC00FFF77EFFDDE9033118482A68844208BF50
:1008BC000B46A18903EB830308044CBF5200920042
:1008CC0003EB8303B3FBF2F364251148A0FB032174
:1008DC00490905FB11330A01A18909040AD41B013A
:1008EC003233A0FB0303C3F3431313439BB22381A3
:1008FC0007B030BDDB003233A0FB0303C3F342135C
:10090C0013439BB2238107B030BD00BF00380140B8
:10091C001F85EB51838921B19BB243F40053838132
:10092C00704723F400531B041B0C8381704700BFDA
:10093C00838A9BB212B10B438382704723EA010373
:10094C0083827047002103E00A4B5B58435004310B
:10095C0009480A4B42189A42F6D3094A02E000238E
:10096C0042F8043B074B9A42F9D3FFF77BFDFFF7A4
:10097C00C7FB7047E80900080000002000000020B9
:0C098C000000002048000020FEE70000F2
:100998004241492033202D20444D41205541525495
:1009A8002052454144590D0A0000000044323343A7
:1009B80051445430310000004E686F6D30330000F0
:1009C8002D42544E3A0000000D0A000002040608A9
:1009D80000000000010203040102030406070809DD
:040000050800095195
:00000001FF
