:020000040800F2
:1000000000500020190D00085D0D00085D0D00086E
:100010005D0D00085D0D00085D0D0008000000008A
:100020000000000000000000000000005D0D00085E
:100030005D0D0008000000005D0D00085D0D00086A
:100040005D0D00085D0D00085D0D00085D0D0008E8
:100050005D0D00085D0D00085D0D00085D0D0008D8
:100060005D0D00085D0D00085D0D00080D02000823
:100070005D0D00085D0D0008450200085D0D0008DB
:100080005D0D00085D0D00085D0D00085D0D0008A8
:100090005D0D00085D0D00085D0D00085D0D000898
:1000A0005D0D00085D0D00085D0D00085D0D000888
:1000B0005D0D00085D0D00085D0D00085D0D000878
:1000C0005D0D00085D0D00085D0D00085D0D000868
:1000D0005D0D00085D0D00085D0D00085D0D000858
:1000E0005D0D00085D0D00085D0D000800000000BA
:1000F0000000000000000000000000000000000000
:0C01000000000000000000005FF808F1A3
:10010C0000232DE9F04F4FF00D0A4FF00A0B8646F5
:10011C00374C85B0DFF8DC90374E384F02AD23807A
:10012C0000F1320839F81E309BB2002B52D04FF040
:10013C00000CCDF804E062469E46A6FB0310C008F6
:10014C0000EB8001A3EB410183B202F110000CF132
:10015C00010C30316844BEF1090F5FFA8CFC00F8D9
:10016C00081CE8D8DDF804E0BCF1000F13D02A44D9
:10017C0000E00A462388511E9BB2B3F5FF7F08D8D6
:10018C00238892F800C09BB2581C80B2208007F8DC
:10019C0003C0AA42EDD123889BB2B3F5FF7F06D8EA
:1001AC0023889BB25A1C92B2228007F803A02388A2
:1001BC009BB2B3F5FF7F06D823889BB25A1C92B230
:1001CC00228007F803B00EF1010EC645AAD105B086
:1001DC00BDE8F08F23889BB2B3F5FF7FDBD84FF0DF
:1001EC00300223889BB2FA5401339BB22380D2E7AE
:1001FC000000002008020020CDCCCCCC0400002054
:10020C0008B5042000F0B4FB58B9022000F0B0FB94
:10021C0000B908BD022000F0B9FB0122044B1A7092
:10022C0008BD042000F0B2FB0122024B1A70ECE76F
:10023C00050200200602002008B54FF4005000F023
:10024C0097FB00B908BD4FF4005000F09FFB002154
:10025C00034800F06DFB0022024B1A7008BD00BF72
:10026C004400024004020020002401252DE98048AE
:10027C0001218DB044F2052000F03EFC974801A905
:10028C008DF80740ADF8045000F08AFB944B93486E
:10029C0001A9019300F084FB04234FF480660DEB5D
:1002AC0003018E48ADF804608DF8073000F078FB40
:1002BC004FF4E1334FF440228A4801A90193039291
:1002CC00ADF81040029400F0ADFC2A468021854820
:1002DC0000F012FD2946834800F000FD294628460F
:1002EC0000F0FEFB804800F071FA804B2022019355
:1002FC007F4B0896CDE9023464238026099204933F
:10030C004FF400524FF48073774801A9079305947A
:10031C000B940A92069600F0EDFA2A4606217248D2
:10032C0000F012FB2946704800F002FB714800F007
:10033C004DFA714A4FF4805301921022DFF8BC81C0
:10034C006C4801A90A93CDE90744059409940B94D0
:10035C00039206960495CDF8088000F0CBFA2A4655
:10036C000221644800F0F0FA2146624800F0E0FAFD
:10037C004FF40023624801A9CDE903340194ADF890
:10038C0008408DF8145000F07BF905232A462146CD
:10039C005B4800F0C3F92946594800F0A1F92946F9
:1003AC00574800F093F9564800F0A4F9544C2046F5
:1003BC0000F0A6F90028FAD1514800F0A5F9504CEC
:1003CC00204600F0A7F982460028F9D101214C48BB
:1003DC0000F0F2F90121022000F09AFB41F61F42D5
:1003EC006323484801A9CDE901238DF80CA000F046
:1003FC009BFB2021434800F009FC434B01A80193CF
:10040C0000F010F9414B01A8019300F00BF9012108
:10041C003C4800F0EDFB3E4CDFF8F8903E4E3F4D73
:10042C00344F02E02B78002B2ED12378002BF9D0FF
:10043C0084F800A099F8003003F0FF00002BF1D1F4
:10044C00FFF75EFE33889BB2002BEBD099F800309F
:10045C0003F0FF01002BE5D14FF0010B384689F872
:10046C0000B000F065FA4FF4704000F077FA2C4AB7
:10047C005946C2F85080338838469BB2936400F0DA
:10048C0057FA2B78002BD0D085F800A099F80030C3
:10049C00002BCAD13220FFF733FE33889BB2002BDE
:1004AC00C3D099F8003003F0FF01002BBDD14FF001
:1004BC00010B384689F800B000F03AFA4FF470405E
:1004CC0000F04CFA164A5946C2F850803388384628
:1004DC009BB2936400F02CFAA7E700BF0008014020
:1004EC000002031800380140080002404C2401406F
:1004FC00080200204400024004380140040000209F
:10050C0000240140000400400B0000010E0100011A
:10051C00060200200402002000000020050200203A
:10052C000000024010B400204FF41F04394A3A4B2B
:10053C00116883B041F00101116051680B405360A8
:10054C00136823F0847323F480331360136823F44B
:10055C0080231360536823F4FE035360946000906F
:10056C000190136843F48033136003E0009BB3F5F0
:10057C00A06F09D0136803F400330193009B01337F
:10058C000093019B002BF1D0224B1B6813F400331A
:10059C0018BF01230193019B012B06D04FF0006281
:1005AC001E4B9A6003B010BC70471D4A194B116862
:1005BC0041F010011160116821F007011160116800
:1005CC0041F0020111605A685A605A685A605A68C0
:1005DC0042F480625A605A6822F47C125A605A685B
:1005EC0042F4E8125A601A6842F080721A601A6873
:1005FC009201FCD55968074A21F0030159605968EA
:10060C0041F002015960536803F00C03082BFAD136
:10061C00C4E700BF001002400000FFF800ED00E04E
:10062C000020024030B501240178C37801F01F028C
:10063C004FEA511C9440C3B10F4B0F25DA6890F868
:10064C0001E0D2438378C2F30222D540C2F1040206
:10065C002B400EFA02F2094813431B010144DBB292
:10066C0081F8003340F82C4030BD044B0CF1200CC9
:10067C0043F82C4030BD00BF00ED00E000E100E08D
:10068C00436891F804C023F4702310B423F48073EE
:10069C000C6843EA0C232343436083680A4A91F8AD
:1006AC0005C01A40D1E902432343134343EA4C03E8
:1006BC0083600A7CC36A013A23F47003D2B243EA22
:1006CC00025310BCC3627047FDF7F1FF836819B188
:1006DC0043F001038360704723F00103836070478C
:1006EC00836819B143F480738360704723F480737B
:1006FC0083607047836843F008038360704700BFD2
:10070C008068C0F3C0007047836843F004038360C3
:10071C00704700BF8068C0F380007047092910B58E
:10072C002ED94FF0070EA1F10A0CC4680CEB4C0C3F
:10073C0003FA0CF30EFA0CFC24EA0C042343C360FA
:10074C00062A0DD84FF01F0C013A436B02EB8202C4
:10075C0091400CFA02F223EA02031943416310BDE3
:10076C000C2A4FF01F041AD8073A036B02EB8202D3
:10077C00914004FA02F223EA02031943016310BD0B
:10078C004FF0070C046901EB410E0CFA0EFC03FA56
:10079C000EF324EA0C0C43EA0C030361D0E70D3A88
:1007AC00C36A02EB8202914004FA02F223EA0203CA
:1007BC001943C16210BD00BF836819B143F48013A3
:1007CC008360704723F48013836070474FF6FE7C80
:1007DC0000230268394902EA0C0288420260036075
:1007EC0043608360C36027D0354B98421ED0354B95
:1007FC0098422DD0344B984230D0344B984221D073
:10080C00334B984230D0334B984239D0324B9842CC
:10081C003CD0324B98422DD0314B98423CD0314B8E
:10082C0098423FD0304B984242D070472F4A536881
:10083C0043F0F003536070472C4A536843F00F03A6
:10084C0053607047294A536843F4702353607047D0
:10085C00264A536843F4706353607047234A5368C5
:10086C0043F4704353607047204A536843F4700359
:10087C00536070471E4A536843F0F003536070474F
:10088C001A4A536843F0706353607047184A5368B0
:10089C0043F00F0353607047154A536843F4706379
:1008AC0053607047124A536843F470435360704767
:1008BC000F4A536843F470235360B6E708000240B4
:1008CC001C0002403000024044000240580002402C
:1008DC006C00024080000240080402401C040240EC
:1008EC00300402404404024058040240000002401C
:1008FC00000402408B6830B40C6A0A69234313432A
:10090C00CD69D1E90542234313434C6A2B4302685A
:10091C0023438C6A6FF30E122343CC68134303609A
:10092C00D1E900234460826030BCC360704700BFD3
:10093C0021B1036843F00103036070474FF6FE7268
:10094C000368134003607047036812B10B430360E4
:10095C00704723EA01030360704700BFC3004CBF1C
:10096C00014B024B586070470004024000000240EB
:10097C00C3004CBF034B044B1B68184214BF01202F
:10098C00002070470004024000000240C3004CBF2E
:10099C00014B024B586070470004024000000240BB
:1009AC00F0B591F803C01CF0100F18BF8B780988B4
:1009BC000CF00F0518BF1D43CBB20BB300234FF047
:1009CC00010E0F27066802E00133082B17D00EFA30
:1009DC0003F232EA0104F7D1BCF1280F36D0BCF196
:1009EC00480F00D102619A0007FA02F4013326EA9B
:1009FC00040605FA02F2082B46EA0206E7D1066065
:100A0C00FF2922D900234FF0010E466802E0013382
:100A1C00082B19D003F108020EFA02F232EA010493
:100A2C00F5D1BCF1280F13D0BCF1480F08BF0261FF
:100A3C000F249A009440013326EA040605FA02F2C8
:100A4C00082B46EA0206E5D14660F0BD4261CAE7D2
:100A5C004261EDE71D4A10B4536803F00C03082BF8
:100A6C0020D01B4B194A036051681A4CC1F3031177
:100A7C00615CCB4043605168C1F30221615C23FA95
:100A8C0001F181605168C1F3C221645C1249E340F9
:100A9C00C360526810BCC2F381328A5CB3FBF2F3C0
:100AAC000361704753685168C3F38343C90303F16F
:100ABC00020306D55268920303D4054A02FB03F3E2
:100ACC00D0E7064A02FB03F3CCE700BF001002405C
:100ADC0000127A00640D0008600D000800093D004A
:100AEC00044A536911B103435361704723EA00036D
:100AFC005361704700100240044A936911B10343DB
:100B0C009361704723EA0003936170470010024021
:100B1C00044AD36911B10343D361704723EA00033C
:100B2C00D36170470010024010B42B4C0388A042D4
:100B3C008A88B1F800C09BB219D0284CA04216D0BC
:100B4C00B0F1804F25D0A4F59834A04221D004F503
:100B5C008064A0421DD004F58064A04219D0204CC2
:100B6C00A0422AD103808285A0F828C00DE04C88D1
:100B7C0023F070032343CC8823F440732343038076
:100B8C008285A0F828C00B7A0386012310BC8382CF
:100B9C0070474C8823F070032343CC8823F44073B4
:100BAC00234303808285A0F828C00E4B9842EAD0DC
:100BBC0003F580639842E8D1E5E70B4CA042D1D015
:100BCC00CC8823F4407323430380084B82859842DE
:100BDC00A0F828C0D7D0E8E7002C01400034014031
:100BEC00001000400044014000140040004001404F
:100BFC00038821B19BB243F001030380704723F0BB
:100C0C0001031B041B0C0380704700BF838823F077
:100C1C0070031B041B0C838083889BB20B43838063
:100C2C00704700BF30B50446238ACA889BB223F4B0
:100C3C00405313432382A3898A8823F4B05323F0AF
:100C4C000C031B041B0C13430A8987B013434A89FA
:100C5C0001A813439BB2A381A38A8A899BB223F474
:100C6C0040731343A3820D46FFF7F4FEDDE9033115
:100C7C0018482A68844208BF0B46A18903EB8303FA
:100C8C0008044CBF5200920003EB8303B3FBF2F356
:100C9C0064251148A0FB0321490905FB11330A0106
:100CAC00A18909040AD41B013233A0FB0303C3F34B
:100CBC00431313439BB2238107B030BDDB003233A7
:100CCC00A0FB0303C3F3421313439BB2238107B06E
:100CDC0030BD00BF003801401F85EB51838921B125
:100CEC009BB243F400538381704723F400531B04DD
:100CFC001B0C8381704700BF838A9BB212B10B43DC
:100D0C008382704723EA010383827047002103E04A
:100D1C000A4B5B584350043109480A4B42189A421B
:100D2C00F6D3094A02E0002342F8043B074B9A42EF
:100D3C00F9D3FFF7F7FBFFF797FA7047740D00082C
:100D4C00000000200000002000000020D002002045
:040D5C00FEE70000AE
:100D6000020406080000000001020304010203045B
:040D70000607080961
:0400000508000D19C9
:00000001FF
