:020000040800F2
:10000000005000201501000880B483B000AF786074
:1000100000E000BF7B685A1E7A60002BF9D100BF58
:1000200000BF0C37BD4680BC704780B582B000AFC2
:10003000324B1B68314A43F0040313602F4B1B689B
:100040002E4A43F0100313602D4B1B682C4A23F0FB
:100050000F0313602A4B1B68294A43F008031360FF
:10006000284B1B68274A43F001031360264B1B688B
:10007000254A23F470031360234B1B68224A43F480
:1000800080131360214B1B68204A23F40053136034
:100090000023FB711E4B1B6803F00103002BF9D1F9
:1000A0004CF25030FFF7B0FF194B1B6803F001030F
:1000B000002BEFD100BF164B1B6803F00103002B90
:1000C000F9D04CF25030FFF79FFFFB79002B0CBFAB
:1000D00001230023DBB2FB71FB79002B06D00B4B15
:1000E0001B680A4A43F400531360D3E7074B1B68AD
:1000F000064A23F400531360CCE700BF18100240F7
:10010000000801400C080140041001400C1001409F
:100110000808014080B500AFFFF787FF00BFFDE78B
:0400000508000115D9
:00000001FF
